{
  "_format": "hh-sol-artifact-1",
  "contractName": "SecureX",
  "sourceName": "contracts/SecureX.sol",
  "abi": [
    {
      "inputs": [],
      "stateMutability": "nonpayable",
      "type": "constructor"
    },
    {
      "inputs": [
        {
          "internalType": "string",
          "name": "name",
          "type": "string"
        },
        {
          "internalType": "string",
          "name": "message",
          "type": "string"
        }
      ],
      "name": "buyChai",
      "outputs": [],
      "stateMutability": "payable",
      "type": "function"
    },
    {
      "inputs": [],
      "name": "getMemos",
      "outputs": [
        {
          "components": [
            {
              "internalType": "string",
              "name": "name",
              "type": "string"
            },
            {
              "internalType": "string",
              "name": "message",
              "type": "string"
            },
            {
              "internalType": "uint256",
              "name": "timestamp",
              "type": "uint256"
            },
            {
              "internalType": "address",
              "name": "from",
              "type": "address"
            }
          ],
          "internalType": "struct SecureX.Memo[]",
          "name": "",
          "type": "tuple[]"
        }
      ],
      "stateMutability": "view",
      "type": "function"
    }
  ],
  "bytecode": "0x608060405234801561001057600080fd5b5033600160006101000a81548173ffffffffffffffffffffffffffffffffffffffff021916908373ffffffffffffffffffffffffffffffffffffffff16021790555061092c806100616000396000f3fe6080604052600436106100295760003560e01c80636a13d8591461002e578063865c51721461004a575b600080fd5b6100486004803603810190610043919061056e565b610075565b005b34801561005657600080fd5b5061005f61029e565b60405161006c919061076d565b60405180910390f35b600034116100b8576040517f08c379a00000000000000000000000000000000000000000000000000000000081526004016100af9061078f565b60405180910390fd5b600160009054906101000a900473ffffffffffffffffffffffffffffffffffffffff1673ffffffffffffffffffffffffffffffffffffffff166108fc349081150290604051600060405180830381858888f19350505050158015610120573d6000803e3d6000fd5b506000604051806080016040528086868080601f016020809104026020016040519081016040528093929190818152602001838380828437600081840152601f19601f82011690508083019250505050505050815260200184848080601f016020809104026020016040519081016040528093929190818152602001838380828437600081840152601f19601f8201169050808301925050505050505081526020014281526020013373ffffffffffffffffffffffffffffffffffffffff1681525090806001815401808255809150506001900390600052602060002090600402016000909190919091506000820151816000019080519060200190610227929190610481565b506020820151816001019080519060200190610244929190610481565b506040820151816002015560608201518160030160006101000a81548173ffffffffffffffffffffffffffffffffffffffff021916908373ffffffffffffffffffffffffffffffffffffffff160217905550505050505050565b60606000805480602002602001604051908101604052809291908181526020016000905b8282101561047857838290600052602060002090600402016040518060800160405290816000820180546102f590610884565b80601f016020809104026020016040519081016040528092919081815260200182805461032190610884565b801561036e5780601f106103435761010080835404028352916020019161036e565b820191906000526020600020905b81548152906001019060200180831161035157829003601f168201915b5050505050815260200160018201805461038790610884565b80601f01602080910402602001604051908101604052809291908181526020018280546103b390610884565b80156104005780601f106103d557610100808354040283529160200191610400565b820191906000526020600020905b8154815290600101906020018083116103e357829003601f168201915b50505050508152602001600282015481526020016003820160009054906101000a900473ffffffffffffffffffffffffffffffffffffffff1673ffffffffffffffffffffffffffffffffffffffff1673ffffffffffffffffffffffffffffffffffffffff1681525050815260200190600101906102c2565b50505050905090565b82805461048d90610884565b90600052602060002090601f0160209004810192826104af57600085556104f6565b82601f106104c857805160ff19168380011785556104f6565b828001600101855582156104f6579182015b828111156104f55782518255916020019190600101906104da565b5b5090506105039190610507565b5090565b5b80821115610520576000816000905550600101610508565b5090565b60008083601f84011261053657600080fd5b8235905067ffffffffffffffff81111561054f57600080fd5b60208301915083600182028301111561056757600080fd5b9250929050565b6000806000806040858703121561058457600080fd5b600085013567ffffffffffffffff81111561059e57600080fd5b6105aa87828801610524565b9450945050602085013567ffffffffffffffff8111156105c957600080fd5b6105d587828801610524565b925092505092959194509250565b60006105ef83836106f4565b905092915050565b61060081610815565b82525050565b6000610611826107bf565b61061b81856107e2565b93508360208202850161062d856107af565b8060005b85811015610669578484038952815161064a85826105e3565b9450610655836107d5565b925060208a01995050600181019050610631565b50829750879550505050505092915050565b6000610686826107ca565b61069081856107f3565b93506106a0818560208601610851565b6106a9816108e5565b840191505092915050565b60006106c1601c83610804565b91507f506c6561736520706179206d6f7265207468616e2030206574686572000000006000830152602082019050919050565b60006080830160008301518482036000860152610711828261067b565b9150506020830151848203602086015261072b828261067b565b9150506040830151610740604086018261075e565b50606083015161075360608601826105f7565b508091505092915050565b61076781610847565b82525050565b600060208201905081810360008301526107878184610606565b905092915050565b600060208201905081810360008301526107a8816106b4565b9050919050565b6000819050602082019050919050565b600081519050919050565b600081519050919050565b6000602082019050919050565b600082825260208201905092915050565b600082825260208201905092915050565b600082825260208201905092915050565b600061082082610827565b9050919050565b600073ffffffffffffffffffffffffffffffffffffffff82169050919050565b6000819050919050565b60005b8381101561086f578082015181840152602081019050610854565b8381111561087e576000848401525b50505050565b6000600282049050600182168061089c57607f821691505b602082108114156108b0576108af6108b6565b5b50919050565b7f4e487b7100000000000000000000000000000000000000000000000000000000600052602260045260246000fd5b6000601f19601f830116905091905056fea264697066735822122085baca4dbf779fe24e43c56adc2bf18295970d78d6e3bbd8ca0bed1d1962699a64736f6c63430008000033",
  "linkReferences": {},
  "deployedLinkReferences": {}
}